:060000000A128A11122809
:10000800FE00030EF0000408F1000A08F200831253
:1000180003137F08F3000A128A1117290A128A119A
:100028001528F701F801F90183010A128A111C2821
:1000380021308316031386008701FF30880083125E
:100048000313A801A901AA010A128A1144210A125C
:100058008A110430831603138100063083120313B8
:1000680081000B108B150B118B168B17A401003018
:100078000A128A116A210A128A117715771D5C28DB
:100088001430F4000030F5000A128A11E2200A1236
:100098008A118312031306184D281430F400003017
:1000A800F5000A128A11E2200A128A1177107711D4
:1000B800771CF71C8F288312031308080F39A60032
:1000C8002608A70027080C3A031D6D28A801A80ACE
:1000D8008D2827080E3A031D8E280230A600260810
:1000E800A800A908031D8D28AA08031D8D28023021
:1000F800A6002608A9000430A6002608AA002A0897
:10010800A6002608A40029080A128A116A210A12E0
:100118008A117712F710F71D4128F711831203137C
:100128002808013A031DC0282908023A031DAD28F2
:100138002A08043A031DAD28A901AA012A08A60025
:100148002608A40029080A128A116A210A128A11AB
:10015800CC28831203132A08093A031DB928AA01D7
:100168000130A6002608A907DC28013083120313F2
:10017800A6002608AA07DC28831203132808023AD7
:10018800031D4128A908031DCE28AA08031DCE284F
:1001980077164128AA08031DD8280930A600260882
:1001A800AA000130A902DC28013083120313AA0235
:1001B8002A08A6002608A40029083C2875088312E6
:1001C8000313A101A1077408A001A00721082004B6
:1001D80003190800A201A3012308803AFF00813017
:1001E8007F02031DF9280030220203180E2901306E
:1001F80083120313A2070318A30A0030A3072308D6
:10020800803AFF0081307F02031D0C290030220252
:10021800031CFB28FF3083120313A0070318A10A4D
:10022800FF30A107EA288B130B1C2029861AF71424
:10023800061C1F2977150B100B1D38290B110630CA
:100248008100771C771A38290130F8070318F90A52
:100258000030F90700307902643003197802031C72
:100268003829F715F801F9018B177308FF00720890
:100278008A0071088400700E8300FE0E7E0E09004D
:100288000F30F4000030F5000A128A11E2200A1239
:100298008A1138300A128A119D210A128A110830EF
:1002A8000A128A119D210A128A1101300A128A1132
:1002B8009D210A128A1106300A128A119D210A12FA
:1002C8008A110F300A128A119D2108008312031324
:1002D800A500C9300A128A119D210A128A118312B7
:1002E80003132508303E0A128A118A210A128A113C
:1002F800CA300A128A119D210A128A118312031325
:100308002408303E0A128A118A210800F60076086D
:100318008312031387008614061186150130F40032
:100328000030F5000A128A11E220831203138611A5
:100338000800F6007608831203138700861006115A
:1003480086150130F4000030F5000A128A11E22007
:08035800831203138611080053
:02400E0071FF40
:00000001FF
