:060000000A128A11FC2F18
:100F18008316031386010130850006309F00831273
:100F280003138601051CF92FF001F1017108803ABD
:100F3800FF0080307F02031DA32F033070020318C7
:100F4800F92FF201F3017308803AFF0083307F0222
:100F5800031DB02FE83072020318C32F0130F207C7
:100F68000318F30A0030F3077308803AFF00833050
:100F78007F02031DC12FE8307202031CB22F01301B
:100F8800831203138600F201F3017308803AFF000D
:100F980083307F02031DD22FE83072020318E52F39
:100FA8000130F2070318F30A0030F3077308803A98
:100FB800FF0083307F02031DE32FE8307202031C19
:100FC800D42F8312031386010130F0070318F10AA6
:100FD8000030F1077108803AFF0080307F02031D5E
:100FE800F72F03307002031CA52F0A128A1100285C
:080FF80083010A128A118C2FFB
:02400E0071FF40
:00000001FF
