:060000000A128A11122809
:10000800FE00030EF0000408F1000A08F200831253
:1000180003137F08F3000A128A11312A0A128A117F
:100028001528F90183010A128A111A28013083164A
:10003800031386008701FF30880083120313A80189
:10004800A9017A30A4002408AA000A128A11F3210F
:100058000A128A11C4308316031381008B100B1601
:100068000B118B168B17C8300A128A1147220A12F5
:100078008A1130300A128A115A220A128A11C9309A
:100088000A128A1147220A128A1130300A128A117A
:100098005A220A128A11791C791C502883120313D8
:1000A800061CCE2808080F39A4002408A700270832
:1000B8000C3A0319632827080E3A031D68282708F5
:1000C800A4002408A600CE2808080F39A400240894
:1000D800AB0006186D28AB08031D76280C30A40069
:1000E8002408AA002B08013A031D7E281830A40012
:1000F8002408AA002B08023A031D86282530A400EC
:100108002408AA002B08043A031D8E283130A400C5
:100118002408AA002B08053A031D96283D30A400A0
:100128002408AA002B08063A031D9E284930A4007B
:100138002408AA002B08083A031DA6285530A40055
:100148002408AA002B08093A031DAE286230A4002F
:100158002408AA002B080A3A031DB6286E30A4000A
:100168002408AA002B080C3A031DBE287A30A400E4
:100178002408AA002B080D3A031DC6287A30A400CB
:100188002408AA002B080E3A031DCE287A30A400B2
:100198002408AA0026080C3A031D422928080A3A0E
:1001A800031D0229A908031D0229C8300A128A1151
:1001B80047220A128A1130300A128A115A220A1268
:1001C8008A11C9300A128A1147220A128A1130305C
:1001D8000A128A115A220A128A1183120313A901D8
:1001E800A8012A08A400A5012408F4002508F500A0
:1001F8000A128A1119220A128A114F28831203132C
:100208002908093A031D2D292A08A400A501240854
:10021800F4002508F5000A128A1119220A128A1117
:10022800013083120313A4002408A807C8300A1257
:100238008A1147220A128A11831203132808303EB2
:100248000A128A115A220A128A1183120313A90167
:100258004328831203132A08A400A5012408F400E4
:100268002508F5000A128A1119220A128A1101308A
:1002780083120313A4002408A907B32983120313C4
:1002880026080E3A031D4F28A808031D7D29A90832
:10029800031D7D29C8300A128A1147220A128A11C1
:1002A80039300A128A115A220A128A11C9300A12DE
:1002B8008A1147220A128A1139300A128A115A22DF
:1002C8000A128A11093083120313A4002408A90012
:1002D8000930A4002408A8002A08A400A5012408BD
:1002E800F4002508F5000A128A1119220A128A1147
:1002F8004F2883120313A908031DA1290130A8025E
:10030800C8300A128A1147220A128A11831203136B
:100318002808303E0A128A115A220A128A11093014
:1003280083120313A4002408A900C9300A128A11F1
:1003380047220A128A1139304A28831203132A08DD
:10034800A400A5012408F4002508F5000A128A1162
:1003580019220A128A11013083120313A902C93023
:100368000A128A1147220A128A11831203132908D2
:10037800303E4A28750883120313A101A1077408A7
:10038800A001A0072108200403190800A201A30165
:100398002308803AFF0081307F02031DD5290030F1
:1003A80022020318EA29013083120313A207031853
:1003B800A30A0030A3072308803AFF0081307F0298
:1003C800031DE82900302202031CD729FF308312BD
:1003D8000313A0070318A10AFF30A107C62901309B
:1003E800F4000030F5000A128A11BE210A128A119F
:1003F80038300A128A1147220A128A1108300A1262
:100408008A1147220A128A1101300A128A114722D8
:100418000A128A1106300A128A1147220A128A1110
:100428000F300A128A1147220800F701F8017808EC
:10043800803AF6007508803A7602031D252A74086A
:10044800770203180800F91C1B2A0130F707031864
:10045800F80A0030F807F9101B2A8B138B1C372A6F
:100468008B1079143B2A0B1D3B2A0B11F9148B179F
:100478007308FF0072088A0071088400700E8300F8
:10048800FE0E7E0E0900F60076088312031387001D
:100498008612061386170130F4000030F5000A12A0
:1004A8008A11BE21831203138613080083120313D3
:1004B800A000200887008616061386170130F4006E
:1004C8000030F5000A128A111922831203138613C9
:0204D80008001A
:02400E0071FF40
:00000001FF
