:060000000A128A11122809
:10000800FE00030EF1000408F2000A08F300831250
:1000180003137F08F4000A128A111B280A128A1196
:100028001528F701F80183010A128A1156288B1343
:100038008B1C46288B100608013A031D272801301F
:100048008700F801F80A0608033A031D3128023030
:1000580087000230F0007008F8000608073A031D10
:100068003B28033087000330F0007008F8000608CA
:10007800093A031D4A28043087000430F00070084C
:10008800F8004A280B1D4A280B11F7148B1774081F
:10009800FF0073088A0072088400710E8300FE0E48
:1000A8007E0E0900FF308316031386008701C330D4
:1000B80081008B100B160B118B168B1783120313F1
:1000C800870177186F280130A3002308F8077808FC
:1000D8000A3A0319F801C330F5000030F6000A1295
:1000E8008A117D200A128A11780883120313870067
:1000F800652883120313A101A201831203132208A6
:10010800803AA0007608803A2002031D8D287508E1
:10011800210203180800F71C8128013083120313F9
:0E012800A1070318A20A0030A207F7108128D1
:02400E0071FF40
:00000001FF
