:060000000A128A11FC2F18
:100D7C00F500750883120313860002308700883053
:100D8C00F0001330F1000A128A11E32683120313C8
:100D9C0087010800F50075088312031386000330E1
:100DAC0087008830F0001330F1000A128A11E32614
:100DBC0001308312031387000800F301F401740857
:100DCC00803AF2007108803A7202031DEF2E70080F
:100DDC007302031808000130F3070318F40A0030FB
:100DEC00F407E52E38300A128A11BE260A128A112F
:100DFC0000300A128A11BE260A128A1101300A1218
:100E0C008A11BE260A128A1106300A128A11BE26CF
:100E1C000A128A110C300A128A11BE260800803080
:100E2C00FC000030FD00E830FA000030FB008316B7
:100E3C000313860187011F3088000A128A11F826D5
:100E4C000A128A117D087B02031D2E2F7C087A0260
:100E5C00031CF92F7C080A128A11BE260A128A1169
:100E6C0083120313081E282F08080F39F600F70108
:100E7C007608F8007708F900972F31300A128A119A
:100E8C00D0260A128A11C22F32300A128A11D026A9
:100E9C000A128A11C22F33300A128A11D0260A1272
:100EAC008A11C22F34300A128A11D0260A128A11E2
:100EBC00C22F35300A128A11D0260A128A11C22F7B
:100ECC0036300A128A11D0260A128A11C22F3730F4
:100EDC000A128A11D0260A128A11C22F38300A122D
:100EEC008A11D0260A128A11C22F39300A128A119D
:100EFC00D0260A128A11C22F2A300A128A11D02641
:100F0C000A128A11C22F30300A128A11D0260A1204
:100F1C008A11C22F23300A128A11D0260A128A1182
:100F2C00C22F7908003A03199C2FC22F7808003A77
:100F3C000319432F013A03194A2F033A0319512F6E
:100F4C00063A0319582F013A03195F2F033A031974
:100F5C00662F0E3A03196D2F013A0319742F033AB9
:100F6C0003197B2F063A0319822F013A0319892F93
:100F7C00033A0319902FC22F8830F0001330F10080
:100F8C000A128A11E3260A128A1193307C067D0418
:100F9C00031DD22FBF30EF2FD3307C067D04031DF1
:100FAC00D92F9330EF2FA7307C067D04031DE02F43
:100FBC00D330EF2F7B087D02031DE62F7A087C02CD
:100FCC000318F22F01300A128A11BE260A128A1156
:100FDC007F30FC000030FD000130FC070318FD0AD7
:100FEC000030FD07282F0A128A11002883010A12EB
:040FFC008A11152F12
:02400E0071FF40
:00000001FF
