:060000000A128A11FC2F18
:100F4A00831603138501FF308800831208080F39BE
:100F5A00F000F1017008F2007108F300081AB32FCB
:100F6A00081EAA2F73087204031DBD2F0130F42F27
:100F7A00013072067304031DC42F0230F42F0230AD
:100F8A0072067304031DCB2F0330F42F043072064C
:100F9A007304031DD22F0430F42F05307206730434
:100FAA00031DD92F0530F42F063072067304031D72
:100FBA00E02F0630F42F083072067304031DE72F62
:100FCA000730F42F093072067304031DEE2F083020
:100FDA00F42F0A3072067304031DF62F09308500B8
:100FEA00AA2F73087204031DAA2F8501AA2F830151
:060FFA000A128A11A52F66
:02400E0071FF40
:00000001FF
