:060000000A128A11FC2F18
:100EB600F6007608831203138600071487100715B9
:100EC6000130F0000030F1000A128A11CD2783129A
:100ED600031307110800F600760883120313860031
:100EE6000710871007150130F0000030F1000A12D4
:100EF6008A11CD2783120313071108000130F00071
:100F06000030F1000A128A11CD270A128A113830F0
:100F16000A128A116E270A128A1108300A128A11D9
:100F26006E270A128A1101300A128A116E270A12D6
:100F36008A1106300A128A116E270A128A110E3099
:100F46000A128A116E270800831603138601870189
:100F5600FF3088000A128A1181270A128A1180300E
:100F66000A128A116E270A128A1183120313081EA7
:100F7600B82F08080F39F7007708F800081AC12FAC
:100F8600F808031DB82F31300A128A115B270A129E
:100F96008A11B82F7108F301F3077008F201F207FE
:100FA6007308720403190800F401F5017508803A04
:100FB600FF0081307F02031DE22F00307402031808
:100FC600F52F0130F4070318F50A0030F507750808
:100FD600803AFF0081307F02031DF32F0030740238
:100FE600031CE42FFF30F2070318F30AFF30F30760
:0A0FF600D32F83010A128A11A72FDE
:02400E0071FF40
:00000001FF
