:060000000A128A11FC2F18
:100DF800F600760883120313860007148710071578
:100E08000130F0000030F1000A128A1148278312DD
:100E1800031307110800F6007608831203138600EF
:100E28000710871007150130F0000030F1000A1292
:100E38008A11482783120313071108000130F000B4
:100E48000030F1000A128A1148270A128A11383034
:100E58000A128A110F270A128A1108300A128A11F7
:100E68000F270A128A1101300A128A110F270A1253
:100E78008A1106300A128A110F270A128A110E30B7
:100E88000A128A110F2708007108F301F307700886
:100E9800F201F2077308720403190800F401F5015E
:100EA8007508803AFF0081307F02031D5D2F0030F6
:100EB80074020318702F0130F4070318F50A003084
:100EC800F5077508803AFF0081307F02031D6E2FF9
:100ED80000307402031C5F2FFF30F2070318F30A77
:100EE800FF30F3074E2FF801F9018316031386012B
:100EF8008701FF3088000A128A1122270A128A11F4
:100F080080300A128A110F270A128A1183120313DA
:100F1800081E8A2F08080F39F7007708FA00081A00
:100F2800932FFA08031D9A2F3130DB2F7A08013AE4
:100F3800031DA02F3230DB2F7A08023A031DA62F9B
:100F48003330DB2F7A08043A031DAC2F3430DB2F03
:100F58007A08053A031DB22F3530DB2F7A08063A96
:100F6800031DB82F3630DB2F7A08083A031DBE2F31
:100F78003730DB2F7A08093A031DC42F3830DB2FAE
:100F88007A080A3A031DCA2F3930DB2F7A080C3A3F
:100F9800031DD02F2A30DB2F7A080D3A031DD62FD8
:100FA8003030DB2F7A080E3A031DE02F23300A1267
:100FB8008A11FC260A128A110130F8070318F90A67
:100FC8000030F90700307902683003197802031CF1
:100FD8008A2F01300A128A110F270A128A118030CB
:100FE8000A128A110F270A128A11F801F9018A2FA9
:080FF80083010A128A11772F10
:02400E0071FF40
:00000001FF
