:060000000A128A11122809
:10000800FE00030EF1000408F2000A08F300831250
:1000180003137F08F4000A128A111B280A128A1196
:100028001528F701F80183010A128A1188288B1311
:100038008B1C78288B100608013A031D27280130ED
:100048008700F801F80A0608033A031D3128023030
:1000580087000230F0007008F8000608073A031D10
:100068003B28033087000330F0007008F8000608CA
:10007800093A031D4528043087000430F000700851
:10008800F80006080B3A031D4F2805308700053095
:10009800F0007008F80006080F3A031D59280630CA
:1000A80087000630F0007008F8000608113A031DB2
:1000B8006328073087000730F0007008F80006084A
:1000C800133A031D6D28083087000830F0007008C7
:1000D800F8000608173A031D7C2809308700093004
:1000E800F0007008F8007C280B1D7C280B11F71411
:1000F8008B177408FF0073088A0072088400710E59
:100108008300FE0E7E0E0900FF308316031386005F
:100118008701C33081008B100B160B118B168B17C0
:100128008312031387017718A1280130A30023083D
:10013800F80778080A3A0319F801C330F5000030C7
:10014800F6000A128A11AF200A128A11780883125F
:1001580003138700972883120313A101A2018312B6
:1001680003132208803AA0007608803A2002031D73
:10017800BF287508210203180800F71CB3280130AE
:1001880083120313A1070318A20A0030A207F7106D
:02019800B3288A
:02400E0071FF40
:00000001FF
